:020000040800F2
:1000000000000220D9520208656F0108696F0108DB
:100010006D6F0108716F0108756F01080000000025
:10002000000000000000000000000000796F0108DF
:100030007D6F010800000000816F0108856F0108D5
:100040002953020829530208295302082953020898
:100050002953020829530208896F0108295302080D
:1000600029530208916F0108996F0108295302086A
:100070002953020829530208295302082953020868
:100080002953020829530208295302082953020858
:10009000295302082953020829530208A16F0108B5
:1000A0002953020829530208295302082953020838
:1000B000B56F0108C16F01082953020829530208CE
:1000C0002953020829530208295302082953020818
:1000D0002953020829530208295302082953020808
:1000E00029530208295302082953020829530208F8
:1000F00029530208295302082953020829530208E8
:1001000029530208295302082953020829530208D7
:1001100029530208295302082953020829530208C7
:1001200029530208CD6F01081570010829530208F0
:1001300029530208295302082953020829530208A7
:100140002953020829530208295302085D70010847
:100150002953020829530208295302082953020887
:100160002953020829530208295302082953020877
:1001700029530208295302082953020800000000ED
:0801800029530208295302086B
:1001900010B5054C237833B9044B13B10448AFF3C1
:1001A00000800123237010BD3003002000000000F8
:1001B0009C89020808B5034B1BB103490348AFF300
:1001C000008008BD00000000340300209C89020864
:1001D00081F0004102E000BF83F0004330B54FEAF8
:1001E00041044FEA430594EA050F08BF90EA020F65
:1001F0001FBF54EA000C55EA020C7FEA645C7FEAF8
:10020000655C00F0E2804FEA5454D4EB5555B8BF1A
:100210006D420CDD2C4480EA020281EA030382EA8B
:10022000000083EA010180EA020281EA0303362D1D
:1002300088BF30BD11F0004F4FEA01314FF4801CF0
:100240004CEA113102D0404261EB410113F0004F02
:100250004FEA03334CEA133302D0524263EB4303B9
:1002600094EA050F00F0A780A4F10104D5F1200E57
:100270000DDB02FA0EFC22FA05F2801841F10001B2
:1002800003FA0EF2801843FA05F359410EE0A5F186
:1002900020050EF1200E012A03FA0EFC28BF4CF0B7
:1002A000020C43FA05F3C01851EBE37101F000456D
:1002B00007D54FF0000EDCF1000C7EEB00006EEB7A
:1002C0000101B1F5801F1BD3B1F5001F0CD3490804
:1002D0005FEA30004FEA3C0C04F101044FEA44525B
:1002E00012F5800F80F09A80BCF1004F08BF5FEAE2
:1002F000500C50F1000041EB045141EA050130BDC2
:100300005FEA4C0C404141EB010111F4801FA4F164
:100310000104E9D191F0000F04BF01460020B1FAB9
:1003200081F308BF2033A3F10B03B3F120020CDAF1
:100330000C3208DD02F1140CC2F10C0201FA0CF0CF
:1003400021FA02F10CE002F11402D8BFC2F1200C34
:1003500001FA02F120FA0CFCDCBF41EA0C019040EA
:10036000E41AA2BF01EB0451294330BD6FEA040433
:100370001F3C1CDA0C340EDC04F11404C4F120021E
:1003800020FA04F001FA02F340EA030021FA04F330
:1003900045EA030130BDC4F10C04C4F1200220FA87
:1003A00002F001FA04F340EA0300294630BD21FAC5
:1003B00004F0294630BD94F0000F83F4801306BF8B
:1003C00081F480110134013D4EE77FEA645C18BF7F
:1003D0007FEA655C29D094EA050F08BF90EA020F16
:1003E00005D054EA000C04BF1946104630BD91EA0E
:1003F000030F1EBF0021002030BD5FEA545C05D111
:100400004000494128BF41F0004130BD14F580044F
:100410003CBF01F5801130BD01F0004545F0FE41C3
:1004200041F470014FF0000030BD7FEA645C1ABFF8
:10043000194610467FEA655C1CBF0B46024650EA2F
:10044000013406BF52EA033591EA030F41F400215B
:1004500030BD00BF90F0000F04BF0021704730B5E1
:100460004FF4806404F132044FF000054FF00001B6
:1004700050E700BF90F0000F04BF0021704730B577
:100480004FF4806404F1320410F0004548BF40424C
:100490004FF000013EE700BF42004FEAE2014FEAA1
:1004A00031014FEA02701FBF12F07F4393F07F4F7C
:1004B00081F06051704732F07F4208BF704793F07F
:1004C0007F4F04BF41F40021704730B54FF4607492
:1004D00001F0004521F000411CE700BF50EA010295
:1004E00008BF704730B54FF000050AE050EA01023E
:1004F00008BF704730B511F0004502D5404261EBAE
:1005000041014FF4806404F132045FEA915C3FF4EE
:10051000D8AE4FF003025FEADC0C18BF03325FEA8B
:10052000DC0C18BF033202EBDC02C2F1200300FA3C
:1005300003FC20FA02F001FA03FE40EA0E0021FA61
:1005400002F11444BDE600BF53B94AB9002908BFFF
:1005500000281CBF4FF0FF314FF0FF3000F082B990
:10056000ADF1080C6DE904CE00F016F8DDF804E0FA
:10057000DDE9022304B0704780EA104080EA1020D1
:1005800080EA101046F6961300F00F0043FA00F0D0
:1005900000F00100704700BF2DE9F047089E0446B7
:1005A0008846002B4BD18A42154667D9B2FA82F2AF
:1005B0004AB1C2F1200701FA02F320FA07F7954089
:1005C00047EA030894404FEA154E230CB8FBFEF7A8
:1005D0001FFA85FC0EFB178843EA084307FB0CF162
:1005E000994209D9EB1807F1FF3080F01B8199423D
:1005F00040F21881023F2B445B1AA4B2B3FBFEF019
:100600000EFB103344EA034400FB0CFCA44509D95B
:100610002C1900F1FF3380F00781A44540F20481DA
:1006200002382C4440EA0740A4EB0C0400271EB11A
:10063000D4400023C6E900433946BDE8F0878B4229
:1006400009D9002E00F0EB800027C6E900013846EA
:100650003946BDE8F087B3FA83F7002F47D18B42C4
:1006600002D3824200F2FA80841A61EB0303012074
:100670009846002EE0D0C6E90048DDE702B9FFDE6B
:10068000B2FA82F2002A40F08F80491B4FEA154EE1
:100690001FFA85F80127B1FBFEFC230C0EFB1C1191
:1006A00043EA014308FB0CF1994207D9EB180CF11E
:1006B000FF3002D2994200F2CD808446591AA3B28B
:1006C000B1FBFEF00EFB101443EA044408FB00F8F3
:1006D000A04507D92C1900F1FF3302D2A04500F242
:1006E000B6801846A4EB080440EA0C409FE7C7F127
:1006F000200CBB4022FA0CFE4EEA030E01FA07F46E
:1007000020FA0CF521FA0CF34FEA1E482543B3FBFF
:10071000F8F92C0C08FB19331FFA8EFA44EA03434C
:1007200009FB0AF49C4202FA07F200FA07F10BD91E
:100730001EEB030309F1FF3080F087809C4240F2FA
:100740008480A9F1020973441B1BADB2B3FBF8F01E
:1007500008FB103345EA034400FB0AFAA24508D916
:100760001EEB040400F1FF336BD2A24569D90238B5
:10077000744440EA0940A0FB0289A4EB0A044C45FA
:10078000C2464B4654D351D0002E69D0B1EB0A0576
:1007900064EB030404FA0CFCFD40FC404CEA050544
:1007A000C6E90054002747E7C2F1200320FA03F707
:1007B000954001FA02F021FA03F34FEA154E38434F
:1007C000010CB3FBFEF71FFA85F80EFB173341EA65
:1007D000034107FB08F38B4204FA02F407D96918B6
:1007E00007F1FF3C2FD28B422DD9023F2944CB1A6F
:1007F00081B2B3FBFEF00EFB103341EA034100FB74
:1008000008F38B4207D9691800F1FF3C17D28B42DD
:1008100015D902382944C91A40EA07473BE7374649
:10082000304609E70746E7E61846FBE64145ABD206
:10083000B8EB020A69EB0E0201381346A4E76046E2
:10084000E9E7184695E76746D1E781467CE7023835
:100850002C4447E7ACF1020C2B442FE7384608E75D
:100860003746E9E6704700BF10F8012B11F8013B4D
:10087000012A28BF9A42F7D0D01A7047034613F8CE
:10088000012B002AFBD1181A013870470000000024
:1008900001F0FF01102A2BDB10F0070F08D010F831
:1008A000013B013A8B422DD010F0070F42B3F6D135
:1008B000F0B441EA012141EA014122F007047FF04E
:1008C00000070023F0E80256083C85EA010586EAA5
:1008D000010685FA47F5A3FA87F586FA47F6A5FAE1
:1008E00087F68EB9EED1F0BC01F0FF0102F00702ED
:1008F00032B110F8013B013A83EA010313B1F8D198
:100900000020704701387047002D06BF3546033878
:10091000073815F0010F07D1013015F4807F02BFB1
:10092000013015F4C03F0130F0BC0138704700BF02
:1009300070B54FF0FF0C4CF4E06C1CEA11541DBF75
:100940001CEA135594EA0C0F95EA0C0F00F0DEF840
:100950002C4481EA030621EA4C5123EA4C5350EA25
:10096000013518BF52EA033541F4801143F4801376
:1009700038D0A0FB02CE4FF00005E1FB02E506F007
:100980000042E0FB03E54FF00006E1FB03569CF05C
:10099000000F18BF4EF0010EA4F1FF04B6F5007F62
:1009A00064F5407404D25FEA4E0E6D4146EB0606D4
:1009B00042EAC62141EA55514FEAC52040EA5E505D
:1009C0004FEACE2EB4F1FD0C88BFBCF5E06F1ED807
:1009D000BEF1004F08BF5FEA500E50F1000041EB3E
:1009E000045170BD06F0004646EA010140EA0200EB
:1009F00081EA0301B4EB5C04C2BFD4EB0C0541EA0D
:100A0000045170BD41F480114FF0000E013C00F321
:100A1000AB8014F1360FDEBF002001F0004170BD45
:100A2000C4F10004203C35DA0C341BDC04F114045E
:100A3000C4F1200500FA05F320FA04F001FA05F2EA
:100A400040EA020001F0004221F0004110EBD370B7
:100A500021FA04F642EB06015EEA430E08BF20EAE3
:100A6000D37070BDC4F10C04C4F1200500FA04F386
:100A700020FA05F001FA04F240EA020001F0004118
:100A800010EBD37041F100015EEA430E08BF20EA8B
:100A9000D37070BDC4F1200500FA05F24EEA020ED3
:100AA00020FA04F301FA05F243EA020321FA04F002
:100AB00001F0004121FA04F220EA020000EBD370B9
:100AC0005EEA430E08BF20EAD37070BD94F0000FB9
:100AD0000FD101F00046400041EB010111F4801FED
:100AE00008BF013CF7D041EA060195F0000F18BF9E
:100AF000704703F00046520043EB030313F4801FDA
:100B000008BF013DF7D043EA0603704794EA0C0F93
:100B10000CEA135518BF95EA0C0F0CD050EA4106A9
:100B200018BF52EA4306D1D181EA030101F0004126
:100B30004FF0000070BD50EA410606BF104619464E
:100B400052EA430619D094EA0C0F02D150EA01365A
:100B500013D195EA0C0F05D152EA03361CBF10469B
:100B600019460AD181EA030101F0004141F0FE413A
:100B700041F470014FF0000070BD41F0FE4141F4BE
:100B8000780170BD70B54FF0FF0C4CF4E06C1CEABE
:100B900011541DBF1CEA135594EA0C0F95EA0C0F73
:100BA00000F0A7F8A4EB050481EA030E52EA03352E
:100BB0004FEA013100F088804FEA03334FF080554F
:100BC00045EA131343EA12634FEA022245EA11157C
:100BD00045EA10654FEA00260EF000419D4208BF2D
:100BE000964244F1FD0404F5407402D25B084FEADA
:100BF0003202B61A65EB03055B084FEA32024FF486
:100C000080104FF4002CB6EB020E75EB030E22BFE2
:100C1000B61A754640EA0C005B084FEA3202B6EBA2
:100C2000020E75EB030E22BFB61A754640EA5C0051
:100C30005B084FEA3202B6EB020E75EB030E22BFE1
:100C4000B61A754640EA9C005B084FEA3202B6EBE2
:100C5000020E75EB030E22BFB61A754640EADC00A1
:100C600055EA060E18D04FEA051545EA16754FEA03
:100C700006164FEAC30343EA52734FEAC2025FEA21
:100C80001C1CC0D111F4801F0BD141EA00014FF0B0
:100C900000004FF0004CB6E711F4801F04BF014381
:100CA0000020B4F1FD0C88BFBCF5E06F3FF6AFAE9D
:100CB000B5EB030C04BFB6EB020C5FEA500C50F12D
:100CC000000041EB045170BD0EF0004E4EEA1131B0
:100CD00014EB5C04C2BFD4EB0C0541EA045170BDB7
:100CE00041F480114FF0000E013C90E645EA060EFB
:100CF0008DE60CEA135594EA0C0F08BF95EA0C0F29
:100D00003FF43BAF94EA0C0F0AD150EA01347FF470
:100D100034AF95EA0C0F7FF425AF104619462CE747
:100D200095EA0C0F06D152EA03353FF4FDAE1046AA
:100D3000194622E750EA410618BF52EA43067FF4FB
:100D4000C5AE50EA41047FF40DAF52EA43057FF48B
:100D5000EBAE12E74FF0FF3C06E000BF4FF0010C96
:100D600002E000BF4FF0010C4DF804CD4FEA410CFA
:100D70007FEA6C5C4FEA430C18BF7FEA6C5C1BD0C7
:100D800001B050EA410C0CBF52EA430C91EA030F48
:100D900002BF90EA020F0020704710F1000F91EAA5
:100DA000030F58BF994208BF90422CBFD8176FEA73
:100DB000E37040F0010070474FEA410C7FEA6C5C41
:100DC00002D150EA013C07D14FEA430C7FEA6C5C48
:100DD000D6D152EA033CD3D05DF8040B704700BF74
:100DE0008446104662468C461946634600E000BFC2
:100DF00001B5FFF7B7FF002848BF10F1000F01BD94
:100E00004DF808EDFFF7F4FF0CBF012000205DF85E
:100E100008FB00BF4DF808EDFFF7EAFF34BF0120E3
:100E200000205DF808FB00BF4DF808EDFFF7E0FF7C
:100E300094BF012000205DF808FB00BF4DF808EDCD
:100E4000FFF7CEFF94BF012000205DF808FB00BF34
:100E50004DF808EDFFF7C4FF34BF012000205DF816
:100E600008FB00BF4FEA410C7FEA6C5C02D150EAFC
:100E7000013C0AD14FEA430C7FEA6C5C02D152EA92
:100E8000033C02D14FF0000070474FF00100704763
:100E90004FEA410212F5001215D211D56FF47873A2
:100EA000B3EB625212D94FEAC12343F0004343EA45
:100EB000505311F0004F23FA02F018BF4042704720
:100EC0004FF00000704750EA013005D111F00040AA
:100ED00008BF6FF0004070474FF00000704700BF40
:100EE00008B50B4B1A6842F400721A601A6842F493
:100EF00080621A601A6842F480721A60032000F05F
:100F00002DF8002015F0F0FF15F0BEFE002008BD02
:100F1000003C0240034A044B11681B780B441360E9
:100F2000704700BF7C04002000000020014B1868BF
:100F3000704700BF7C04002038B50446FFF7F6FF79
:100F4000631C054602D0044B1B781C44FFF7EEFFE0
:100F5000401BA042FAD338BD00000020074AD368E6
:100F60004FF6FF010B40000243F0BF6300F4E06066
:100F700043F400330343D360704700BF00ED00E04B
:100F8000184BDB68C3F3022330B4C3F10705042D0B
:100F900003F1040428BF0425062C19D9033B4FF0A4
:100FA000FF349C4022EA04044FF0FF32AA4021EAB9
:100FB000020101FA03F2224312010028D2B20ADB35
:100FC00000F1604000F5614080F8002330BC7047BC
:100FD00000242346E8E7044B00F00F0003441A7690
:100FE00030BC704700ED00E0FCEC00E000F01F01B9
:100FF00001234009024A8B4042F82030704700BF6D
:1010000000E100E0F8B50446FFF790FF002C54D053
:101010000222236884F835201A68002122F0010298
:1010200084F8341005461A6005E0FFF77FFF401B87
:1010300005283BD823681A68D107F6D4D4E90126DD
:10104000D4E90351324360691F682A43D4E9066535
:101050000A430243216A354832432A430A43616AFC
:101060003840042942EA000229D01A605A6922F065
:1010700007021143DAB22E485961103AA0FB02125E
:1010800012092C4923F47F73895CE16523F0030383
:10109000032A88BF04333F228A4001250021A3652B
:1010A00008469A60616584F83550F8BD0323202214
:1010B0006265184684F83530F8BD0120F8BDD4E9E2
:1010C0000B0101430A43A56A1A605A6945F00401FD
:1010D00022F0070211430028CCD07EB1B6F5005FA4
:1010E00016D0022D03D9032DC4D1C201C2D50123CC
:1010F00040226265184684F83530F8BD012D03D0D2
:10110000F3D3022DB6D1F0E7B0F1C07FB2D1EEE754
:10111000032DAFD801A252F825F000BFEF10000850
:10112000EB100008EF100008091100083F8010F0D4
:10113000ABAAAAAAB889020870B490F83440012C6E
:1011400025D090F835400125AC4280F8345018D1B4
:1011500004680226002580F83560456525688668A4
:1011600025F48025402E256063600BBFA260A1603E
:10117000E160E260236843F001032360002070BC5B
:101180007047002380F8343070BC02207047022082
:1011900070BC70472DE9F84F04460F461646FFF71E
:1011A000C5FE94F83530022B07D0802200236265FB
:1011B00084F834300120BDE8F88F23681B68DD0512
:1011C00056D48346E26D002F4DD04FF0100A0AFA34
:1011D00002FAA56D2B68002E50D0701C5ED04FF027
:1011E00008094FF001081AEA030F2FD1636DDB07DE
:1011F0002CD4FFF79BFEA0EB0B00B04244D8E26D6D
:101200002B6809FA02FC042113EA0C0F08FA02F019
:1012100001FA02F107D0D4F854E04EF0010EC4F800
:1012200054E0C5F808C0034206D0D4F854C04CF0CE
:10123000020CC4F854C0A8600B42D4D0606D1AEA06
:10124000030F40F004006065A960CFD0636D13B157
:10125000636DD9074CD4002F60D0102303FA02F23B
:10126000AA600020A7E74FF0200A0AFA02FAB0E7C6
:101270004FF4807363650120BDE8F88F1AEA030F0D
:10128000E4D1636DD807E1D42021002201236165F8
:1012900084F8342084F8353003208CE74FF0080CB4
:1012A000012604200CFA02FC964090401AEA030F33
:1012B000CCD1636DD907C9D42B6813EA0C0F05D0C4
:1012C000616D41F001016165C5F808C0334204D089
:1012D000616D41F002016165AE600342E6D0616D6F
:1012E0001AEA030F41F004016165A860E1D0ADE79F
:1012F000A76DFFF71BFE94F83530022B064618D079
:101300008023E26D63653023934000210122AB60AE
:10131000104684F8341084F835204CE7302303FA63
:1013200002F20123AA60384684F8347084F835301C
:1013300041E72368216C1A6822F016021A605A6984
:1013400022F080025A6101B31A6822F008021A6082
:101350001A6822F001021A6005E0FFF7E7FD801B22
:1013600005280BD823681B68DB07F6D4E26D3F2302
:1013700093400121BB6084F83510C4E72022032389
:101380006265E26D84F83530BDE7A26C002ADBD1DE
:10139000DEE700BF2DE9F04FDFF830C2DFF8308222
:1013A000D1F800E083B0002503E00135102D00F0F6
:1013B0009A800123AB400EEA0304A342F5D14E68A4
:1013C00026F0100ABAF1020F00F090804FEA4509AA
:1013D0000322D0F800B002FA09F2D24306F0030764
:1013E00002EA0B0B07FA09F70AF1FF3A47EA0B0783
:1013F000BAF1010F076040F29F80C7688B683A40DE
:1014000003FA09F31343C360F300CED5002301931D
:10141000D8F8443043F48043C8F84430D8F8443016
:1014200025F0030202F1804203F4804302F59C326E
:10143000019305F00307019BD2F80890BF000F232A
:10144000BB4029EA030A5B4B984224D003F5806332
:10145000984200F08480584B984200F08780574BA8
:10146000984200F08A80564B984200F08D80554B90
:10147000984200F09080544B984200F09380DFF83F
:10148000549148450CBF4FF007094FF0080909FA7D
:1014900007F74AEA070AC2F808A0DCF80030E2437E
:1014A000F70354BF13402343CCF80030DCF804307A
:1014B000B70354BF13402343CCF80430DCF80830A2
:1014C000F70254BF13402343CCF80830DCF80C304B
:1014D000B60205F1010554BF13402343102DCCF88B
:1014E0000C307FF466AF03B0BDE8F08F4FEAD5094A
:1014F00000EB890905F00707D9F82020BF004FF05D
:101500000F0B0BFA07FB22EA0B0A0A69BA4042EA00
:101510000A02C9F820204FEA45090322D0F800A0AA
:1015200002FA09F2D24306F0030702EA0A0A07FAAE
:1015300009F747EA0A070760876807EA020ACF68DF
:1015400007FA09F747EA0A078760D0F804A0C6F34C
:1015500000172AEA0303AF401F4347604DE74FF0EF
:10156000010909FA07F74AEA070A94E74FF0020966
:1015700009FA07F74AEA070A8DE74FF0030909FA63
:1015800007F74AEA070A86E74FF0040909FA07F75E
:101590004AEA070A7FE74FF0050909FA07F74AEA1E
:1015A000070A78E74FF0060909FA07F74AEA070A37
:1015B00071E700BF0000024000080240000C02403A
:1015C000001002400014024000180240003C01409C
:1015D00000380240001C02400369194214BF012078
:1015E0000020704702B9090481617047436959407E
:1015F00041617047704700BF044A5169014200D100
:10160000704708B55061FFF7F5FF08BD003C014089
:101610002DE9F04790F8904284B0012C9DF830C03D
:101620009DF834E0BDF8388026D001EB810400EB52
:10163000C4040546D60902F07F004FF0010A85F880
:1016400090A284F8383084F8391084F83FE084F8A8
:101650003CC084F83A0084F83B602868A4F84080D5
:10166000CDE901E8CDF800C003F060F8002385F86B
:10167000903204B0BDE8F087022004B0BDE8F087E6
:1016800090F89032012B0BD010B50123044680F85E
:101690009032006803F00AFA002084F8900210BD2E
:1016A0000220704700283AD02DE9F0410323074675
:1016B0008AB080F89132044616F064FE386802F071
:1016C000C5FE54F8106B0FCC6D460FC50FCC0FC57F
:1016D00094E8030085E8030007F1040898E80E0089
:1016E00030463E4602F04EFE0121386802F0B6FE5A
:1016F00056F810CB0FCE6D460FC50FCE0FC594E830
:10170000030085E80300604698E80E0002F014FF2D
:101710000123002087F891320AB0BDE8F081012052
:10172000704700BFF0B58C009DF814C0069FBDF84F
:101730001C60651800EBC505BCF1000F14BF4FF02D
:10174000020E4FF0030E85F83B2085F83F3085F8F8
:1017500042E09DF82050032B1BD8DFE803F0024D38
:101760003931BCF1010F14D19AB9631800EBC303EE
:10177000002E58D1022283F851C0631800EBC30336
:1017800093F85CC083F84220BCF1020F01D083F8CB
:101790003D50631800EBC303282283F8391000245E
:1017A00002FB0101C3E91176027C006883F85C400A
:1017B000DC6483F85D403831BDE8F04003F02CB8BC
:1017C000631800EBC3034ABB93F8515015BB17E0F5
:1017D000CAB9621800EBC20292F851C092F85CE0FC
:1017E000BCF1000F18BF9C46BEF1020F82F842C048
:1017F000CFD082F83D50CCE7631800EBC303002242
:1018000083F84220C5E7631800EBC30393F8502028
:10181000002AF5D0022283F84220BAE793F850203C
:10182000002AF7D1ECE793F85120002A18BF0222D2
:10183000A3E700BF2DE9F04F056885B004462846B0
:1018400002F076FE012802D005B0BDE8F08F2068D6
:1018500002F06AFE0028F7D0206802F065FE10F45E
:10186000001F20681CBF4FF40013436102F05CFEB0
:1018700010F4801F20681CBF4FF48013436102F0F6
:1018800053FE10F0806F20681CBF4FF080634361EF
:1018900002F04AFE10F0020F20681CBF02234361D1
:1018A00002F042FE860000F10981206802F03CFE51
:1018B000C001266800F1C780304602F035FE0207FD
:1018C00000F11281206802F02FFE10F0007F2068E6
:1018D0003ED102F029FEC306B6D52568AB6923F0D8
:1018E0001003AB612E6AC6F34342022A2BD1C6F322
:1018F0000A18B8F1000F26D006F00F0606EB86078F
:1019000004EBC707796CF1B14246284602F0F8FDB6
:1019100005F5A06303EB4613786C1D69F96CBF4AAB
:10192000404441442A407864F9645AB11A6822F06C
:10193000804242F000421A6097F8503083F0010371
:1019400087F850302568AB6943F01003AB617BE743
:1019500003F09CF8A16883462068002900F0C0804D
:1019600005F5A06500264FF0010A38E05B0740F15D
:10197000C2800423BB60FB6843F00203FB60BB68CA
:101980009B0500F1F080BB68D80740F1C280236955
:10199000002B40F0AA814FEA880303EB080104EB17
:1019A000C1010020886581F85DA0C7F808A091F802
:1019B0003F0010F0FD0F00F05081032800F031824D
:1019C000434404EBC30393F8502082F0010283F8F0
:1019D0005020A168206801368E4280F081800AFA8A
:1019E00006F313EA0B0FF6D073015FFA86F85B5922
:1019F0004FEA481200F5A06902EB090713F4004F03
:101A0000BB68B3D15B077DD4BB6813F0200300F043
:101A1000B88008EB8809202304EBC909BB6099F85A
:101A20003D30012BD7D1FB68042243F0020341462D
:101A300089F85D20FB6003F039F8022389F85C30F7
:101A4000A1682068C7E7D6F840340293D6F840343E
:101A50000393039B23F02E030393029B99073746BE
:101A600007D5029BDA0700F14E81039B43F0020386
:101A70000393029B1B0715D5039B43F008030393B5
:101A8000029B580740F12581A169022900F073816A
:101A9000E368032B04BF4EF66023C6F804342046E7
:101AA00016F0A8FC2668029B990603D5039B43F019
:101AB00020030393039BC7F84034FDE6D5F8403478
:101AC00023F02E03C5F84034204616F097FC012180
:101AD000206802F0C1FD20684FF000534361E5E645
:101AE0004FF000734361F4E6204616F07FFC206857
:101AF00008234361E7E6BB68990640F19180202303
:101B0000BB603CE70423BB60FB6843F00203FB605F
:101B100061E7BB68990740F1AD804FEA880303EBAA
:101B2000080104EBC101D7F80CC091F85D002CF05E
:101B3000020C0128C7F80CC000F0ED80052800F069
:101B4000EA80062800F03E81082800F03B8191F8E9
:101B50005C000223024641462046BB6016F052FC60
:101B6000A168206837E7FB68206843F0020341461C
:101B7000FB6002F09BFF4FF40073BB60A16820681C
:101B800029E7BA68520600F1E180BB6813F40073DC
:101B900040F0FE80BA68D20700F12F81BB6813F0D5
:101BA000080340F04E81BA68D20600F16481BB6838
:101BB0001B0600F18181BB6813F4806C40F08E81BC
:101BC000BB689A077FF507AF282303FB0843F96832
:101BD00093F85D2021F00201012AF96000F0938161
:101BE000032A00F0AC81042A00F0AD81052A00F040
:101BF000A781062A00F09581082A00F09281282307
:101C000003FB0842022392F85C20BB604146204659
:101C100016F0F8FBA1682068DDE600BF0000F81FA1
:101C2000BB681B077AD4BB6859057FF5A8AEFB6873
:101C3000009243F00203FB60414602F037FF08EBDD
:101C40008803102104EBC303B96008204FF48061BE
:101C500083F85D00009AB96091E6FA682068009305
:101C600042F00202FA60414602F020FF1022BA6000
:101C7000009BA5E6BB6820681B0600F18B80BB6853
:101C8000D90640F183804FEA880303EB080104EB97
:101C9000C10191F83F10032900F00181434404EB96
:101CA000C3034FF0030CA16883F85DC04FF0100C24
:101CB000C7F808C093F83F3013F0FD0F7FF48BAEE8
:101CC00052F8093023F0804343F0004342F80930D2
:101CD00081E6D6F8403423F02E03C6F84034266857
:101CE000B36943F00053B361DDE64FEA880303EBC9
:101CF0000801386904EBC101C0F3120C886CA0EB39
:101D00000C00C86449E6B36923F00053B361204670
:101D100016F070FBA9E681F85C001AE7FB680092F8
:101D200008EB880104EBC10143F00203FB604FF0B4
:101D3000050C4FF0100E082381F85DC0C7F808E0CD
:101D40004146BB6002F0B2FE009A18E608EB88023A
:101D5000F96804EBC20241F0020C9365042382F897
:101D60005D304146C7F80CC002F0A0FE4023BB60C6
:101D7000A16820682FE6029B206803F4C023B3F516
:101D8000802F18BF012102F067FC88E6A16822E6D7
:101D9000FB68EAE608EB880304EBC303F9689A6D75
:101DA00041F0020C01324FF0060EC7F80CC041465C
:101DB0009A6583F85DE002F079FE8023BB60A1683C
:101DC000206808E603EB080104EBC101896D0329D3
:101DD0004AD8282000FB084001318165022052F8D2
:101DE0000910434404EBC30C21F0804343F000434B
:101DF0008CF85C0042F80930ABE6FA6808EB880919
:101E000004EBC90942F00202C9F858304146FA60B1
:101E100002F04CFEC7F808A0A168206889F85DA010
:101E2000D9E552F80900009340F0005042F809004B
:101E300081F85CA001224146204616F0E3FA009B9F
:101E4000BEE50823BB60FB6843F002034146FB602C
:101E500008EB880802F02AFE04EBC803052283F889
:101E60005D20A1682068B6E5282101FB084100201B
:101E700088650420B3E7FA68282101FB084942F08D
:101E80000202C9F858304146FA6002F00FFE032200
:101E9000102389F85D20A1682068BB609BE5F96884
:101EA00041F00201F9604146CDE9002302F0FEFD58
:101EB0002068DDE90023F1E6FB6843F002034146B8
:101EC000FB6002F0F3FD282303FB08480622802371
:101ED00088F85D20A1682068BB607CE5FB6843F062
:101EE00002034146FB6002F0E1FD282303FB0848A2
:101EF00010214FF480620823B9602068BA60A1689D
:101F000088F85D3067E593F83F1083F85C2002297C
:101F10007FF475AE93F8512082F0010283F85120CE
:101F20006DE6282303FB08439A6D511C032A99652B
:101F300005D900210422996583F85C205FE602221E
:101F400083F85C205BE6022283F83DC083F85C20C6
:101F500055E600BF38B590F89032012B0ED00446FC
:101F6000012580F89052006802F068FA294620683E
:101F700002F0AAFB002084F8900238BD022038BD90
:101F800090F89032012B0BD010B50123044680F855
:101F90009032006802F0A6FE002084F8900210BD86
:101FA00002207047006802F075BB00BF01EB8101A1
:101FB00000EBC10191F85C00704700BF006802F0BF
:101FC000AFBB00BF006802F0A1BB00BF014B012204
:101FD0001A60704720000E42002800F032812DE97F
:101FE000F0410368DD0782B004462FD5AC498A680A
:101FF00002F00C02042A00F0EA808A6802F00C0267
:10200000082A00F0E0806368B3F5803F00F0E980C3
:10201000B3F5A02F00F05481A14D2A6822F480323C
:102020002A602A6822F480222A60002B40F0DE8099
:10203000FEF77CFF064605E0FEF778FF801B64286C
:1020400000F2F2802B689B03F6D423689F0775D4B7
:102050001A0715D56369002B00F0A580914B904DB0
:1020600001221A60FEF762FF064605E0FEF75EFFFA
:10207000801B022800F2D8806B6F9B07F6D523687F
:1020800058073BD5864A136C13F0805340F0DB8031
:102090000193136C43F080531364136C03F080536B
:1020A0000193019B0126804D2A68D10540F1AC8047
:1020B000A368012B00F0C980052B00F00B81784D3F
:1020C0002A6F22F001022A672A6F22F004022A678F
:1020D000002B40F0BF80FEF729FF41F28837804691
:1020E00006E0FEF723FFA0EB0800B84200F29C8058
:1020F0002B6F9807F5D4002E40F0DC80A269CAB19E
:10210000674DA96801F00C01082948D0022A674AE6
:102110004FF00001116000F0E780FEF707FF2C464A
:10212000054604E0FEF702FF401B02287CD8236826
:102130009B01F7D4002002B0BDE8F081584A9168B5
:1021400011F00C0F24D0916801F00C0108291CD06B
:10215000E368002B00F09280554B514D01221A602C
:10216000FEF7E4FE064604E0FEF7E0FE801B0228D0
:102170005AD82B689807F7D52B68226923F0F80303
:1021800043EAC2032B60236862E752685602DFD439
:10219000434A126895074BD5E268012A48D00120CE
:1021A00002B0BDE8F0813F4A3D4D1360FEF7BEFE30
:1021B000064604E0FEF7BAFE801B022834D86B6F97
:1021C0009F07F7D45BE74A6850027FF51CAF344A9B
:1021D000126891037FF53AAF6268002A7FF436AF48
:1021E000DDE72F4A136843F480331360FEF79EFE49
:1021F0002B4D064604E0FEF799FE801B642813D899
:102200002B689A03F7D520E72A6842F480722A6087
:10221000FEF78CFE07462B68DA053FF549AFFEF75F
:1022200085FEC01B0228F6D9032002B0BDE8F0816C
:102230001B4920690A6822F0F80242EAC0020A60DB
:1022400006E70120704700262DE7154A136F43F07B
:1022500001031367FEF76AFE114D804641F288378D
:1022600005E0FEF763FEA0EB0800B842DCD82B6F58
:102270009B07F6D5002E3FF441AF1BE00C4A084DFA
:102280001360FEF753FE064604E0FEF74FFE801B88
:102290000228C9D82B689907F7D42368D8E600BF6D
:1022A00000380240800E4742007000406000474204
:1022B00000004742234A136C23F0805313641DE748
:1022C000204B1A6842F480221A601A6842F4803265
:1022D0001A608BE71B4B1A6F42F004021A671A6FE1
:1022E00042F001021A67B5E7FEF720FE064604E059
:1022F000FEF71CFE801B022896D82B689901F7D4A4
:10230000D4E90736D4E90902E16A0E4C334343EAC3
:102310008013520843EA0163013A0B4943EA02433E
:1023200001226B600A60FEF701FE054605E0FEF73C
:10233000FDFD401B02283FF677AF23689A01F6D5D2
:10234000F8E600BF0038024060004742174908B570
:102350008B6803F00C03042B1BD0082B17D14A68A1
:102360004B6813F4800302F03F0214D1496810480F
:10237000C1F38811A1FB0001FEF7E6F80B4B5B6887
:10238000C3F3014301335B00B0FBF3F008BD084821
:1023900008BD084808BD4B680648C3F38813A3FB73
:1023A00000010023FEF7D0F8E8E700BF0038024044
:1023B0000024F40000127A0060B1484A136803F068
:1023C0000F038B4208D2CBB21370136803F00F03D4
:1023D0008B4201D00120704703682DE9F0419D0731
:1023E00014D55C0704D53E4CA26842F4E052A260CA
:1023F0001A0704D53A4CA26842F46042A260384CF5
:102400008568A26822F0F0022A43A260DF07044632
:102410000D4622D54268012A56D0931E012B304B1F
:102420001B6858D9990725D52D4EB36823F00303AF
:102430001343B360FEF77AFD41F28837804605E02A
:10244000FEF774FDA0EB0800B84242D8B36862689A
:1024500003F00C03B3EB820FF2D1204A136803F0B0
:102460000F03AB4209D9EBB21370136803F00F03EB
:10247000AB4202D00120BDE8F08123685A0706D59F
:102480001749E0688A6822F4E05202438A601B0719
:1024900011D4FFF75BFF124B12499B68124AC3F33A
:1024A0000313CB5C20FA03F30020136014F01CFD2F
:1024B0000020BDE8F0810A4A2169936823F4604353
:1024C00043EAC1039360E4E7054B1B689E03ABD46A
:1024D000D0E70320EDE79801A6D4CBE7003C02400B
:1024E00000380240B07C030808010020014B186846
:1024F000704700BF08010020044B054A9B6805494E
:10250000C3F382230868D35CD84070470038024088
:10251000C07C030808010020044B054A9B6805495C
:10252000C3F342330868D35CD84070470038024098
:10253000C07C0308080100200E4B0F2202609A683D
:1025400002F0030242609A6802F0F00282609A6828
:1025500002F4E052C2609B68DB0810B403F4E0535D
:10256000054C036123685DF8044B03F00F030B6017
:10257000704700BF00380240003C0240F0B50546FD
:10258000006810F0050F83B05CD110F0020001D19B
:1025900003B0F0BD454B464C002201921A6C42F04C
:1025A00080521A641B6C03F080530193019B2368D3
:1025B00043F480732360FEF7B9FC064604E0FEF79F
:1025C000B5FC801B02283AD82368D905F7D53749CE
:1025D000EB680A6F12F4407203F4407010D082422C
:1025E0000ED00B6F334A23F4407301240020146093
:1025F00010600B670B6FDA0713D4EB6803F44070BD
:10260000B0F5407F47D029498A6822F4F8128A60E1
:10261000264A116FC3F30B030B430020136703B06B
:10262000F0BD0C46FEF782FC41F288360746236F68
:102630009B07E2D4FEF77AFCC01BB042F7D9032017
:1026400003B0F0BD1C4B194C00221A60FEF76EFC63
:10265000064604E0FEF76AFC801B0228EFD82368D8
:102660001F01F7D4D5E90113134A104E1B0743EAA3
:1026700081130121C4F884301160FEF757FC044631
:1026800004E0FEF753FC001B0228D8D83368180179
:10269000F7D5286879E70548826823F0704122F46D
:1026A000F81221F440710A438260B1E70038024019
:1026B00000700040400E474268004742002868D042
:1026C00038B5437F044603F0FF02002B45D0236852
:1026D00053220220CA21607759625A62DA6855068D
:1026E00029D599686268D4E9045021F4E00121F009
:1026F0004001996099682A4302430A43E1689A605D
:1027000019611A69A16842EA01421A61DA6822F085
:102710008002DA609A68910623D5196CA06921F4C9
:10272000802119641A6CFF25024301211A640020DC
:102730005D62617738BD4FF0FF32DA60FEF7F6FB7D
:10274000054605E0FEF7F2FB401BB0F57A7F19D88D
:102750002368DA685006F5D5C3E7027714F0B0FABB
:10276000B5E7DA6822F0A002DA60FEF7DFFB054683
:102770002368DA689206D0D4FEF7D8FB401BB0F588
:102780007A7FF5D92268FF21042351620120637703
:1027900038BD0120704700BF037F012B00F09680F9
:1027A0002DE9F04102230E460121017705464377CA
:1027B0000168002A36D08C6870783278B37814F0CB
:1027C000400414BFF478F4704FEA002040EA02405D
:1027D00018BF240418430443CA2253234A624B629D
:1027E000CB685A0657D504F07F3424F0FE440C60C1
:1027F0008A68D6E9033022F480228A608A6803431B
:1028000013438B60CB6823F08003CB608B689B06FF
:102810005ED5FF2000230122486218466A772B7795
:10282000BDE8F0818F68307817F0400716BFF77861
:10283000F7703F0409284FF0000407D90A38C0B2E6
:10284000092804F10104F9D82401E4B27378204383
:10285000092B4FEA004457D900200A3BDBB2092B71
:1028600000F10100F9D800015FFA80FCB07843EA7A
:102870000C0309284FEA032344D90A38C0B20928B7
:1028800002F10102F9D81201D2B23C4323431043B2
:1028900043EA0004A0E74FF0FF33CB60FEF746FBAE
:1028A00007462968CB6813F040089CD1FEF73EFB31
:1028B000C01BB0F57A7FF4D92A68FF210423516246
:1028C000012085F81C806B77BDE8F08102207047FD
:1028D000CB6823F0A003CB60FEF728FB06462968EF
:1028E000CC6814F0200494D1FEF720FB801BB0F5D7
:1028F0007A7FF4D92A68FF210423516201202C77C2
:102900006B778DE70022C0E74FF0000CAEE700BF09
:10291000036870B49D6A1C691B684D6003F07F33C7
:1029200023F0FE43180CC4F30E0400F0400600F040
:102930003F058C60C3F30624DBB2CE700D704C7083
:102940008B70BAB9220902EB82062D091A0905EB30
:10295000850500F00F0004F00F0402EB820203F083
:102960000F0300EB450004EB460403EB4203087041
:102970004C708B70002070BC704700BF037F012B30
:102980007DD02DE9F04105460223012028776B77A1
:102990000E78CB7848788C7876030AB346EA0343FE
:1029A0001C4344EA00242B68CA21532259625A620C
:1029B000DA68510648D524F07F4424F0C0045C60F6
:1029C000DA6822F08002DA609A68920659D5FF2010
:1029D000002201215862104669772A77BDE8F0810C
:1029E000C70604D520F010000A30C0B24870092B89
:1029F0004FF0000107D90A3BDBB2092B01F10101BD
:102A0000F9D80901C9B20B4309284FEA03434FF033
:102A1000000107D90A38C0B2092801F10101F9D82B
:102A20000901C9B20843092C4FEA002143D90A3CE5
:102A3000E4B2092C02F10102F9D81201D0B21E430E
:102A4000314304430C43AEE74FF0FF32DA60FEF748
:102A50006DFA80462B68DF6817F04007ABD1FEF7B0
:102A600065FAA0EB0800B0F57A7FF3D92A68FF2158
:102A70000423516201202F776B77BDE8F08102209B
:102A80007047DA6822F0A002DA60FEF74FFA0646D5
:102A90002B68DC6814F0200499D1FEF747FA801BFC
:102AA000B0F57A7FF4D92A68FF210423516201200E
:102AB0002C776B7792E70020C1E700BF03685B6863
:102AC00023F07F4323F0C00370B4C3F30724C3F3A0
:102AD0004236180C04F01F05DBB20E704D70C87042
:102AE0008B70BAB92D09AA00060915441A0904F019
:102AF0000F0406EB860600F00F0002EB820203F0E3
:102B00000F0304EB450400EB460003EB42034C705B
:102B1000C8708B70002070BC704700BF03685033D2
:102B200043F82120704700BF0368503353F8210059
:102B3000704700BF00283BD090F85120002370B5AB
:102B400002F0FF010446836262B31846D4E90135FE
:102B5000D4E903212B4313436269E569266A0B43D9
:102B60001343A26921682B43022584F85150334353
:102B700002F400750E682B43120C656A02F0040221
:102B800003432A4326F040060E600B604A60CB697F
:102B9000002223F400630125CB611046626584F8AE
:102BA000515070BD80F8501014F096F8A06ACDE72F
:102BB000012070472DE9F0410D4690F85010012991
:102BC00082B072D01E46012380F85030044617466A
:102BD000FEF7ACF9804694F85100C0B2012809D044
:102BE00002200122002384F8512084F8503002B0E2
:102BF000BDE8F081002DF4D0002FF2D0A36820684A
:102C00002563032284F85120B3F5004F4FF00002F2
:102C10006265A263A287C4E91022E786A786E287DD
:102C2000024603D1036843F48043036003685906F6
:102C30003FD5E3686168B3F5006F00F0B08000290C
:102C400051D115F8013B0373E38E2068013B9BB221
:102C5000E3860246711C31D0002E52D0E38E9BB227
:102C600073B183689A0755D4FEF760F9A0EB0800AA
:102C700086424DD9E38E20689BB20246002BF0D1EC
:102C8000771C51D183689D07FCD583681A06FCD454
:102C9000A3682BB90193C368019383680193019BD7
:102CA000606D003018BF01209BE7022002B0BDE834
:102CB000F081036843F040030360BAE7E38E9BB200
:102CC000002BDDD083689B07F8D515F8013B037313
:102CD000E38E2068013B9BB2E386E38E9BB2024603
:102CE000002BEFD1CCE7E38E9BB2012BB2D1A8E74A
:102CF00015F8013B0373E38E2068013B9BB2E3862A
:102D00000246E38E9BB2002BBAD083689F07EFD4B4
:102D1000032066E715F8013B0373E38E2068013B4F
:102D20009BB2E386024699E78368990713D4002E85
:102D300000F08A80FEF7FAF8A0EB0800864240F225
:102D40008280206802469BE7FEF7F0F8A0EB0800BF
:102D50008642206804D983681B0699D5002EF3D1DA
:102D60004368626823F0E003B2F5827F436000F0BD
:102D70009080A36AB3F5005F08D103684DF6FF7237
:102D800013400360036843F400530360012084F898
:102D90005100636D202213436365626521E70029BA
:102DA00049D0E38E9BB2012B45D0771C16D0002E64
:102DB0002FD0E38E9BB2002B3FF462AF836899075C
:102DC00031D4FEF7B3F8A0EB08008642A0D9E38E19
:102DD00020689BB20246002BF0D151E7E38E9BB2F4
:102DE000002B3FF44DAF83689B07F7D535F8023BC6
:102DF000C360E38E013B9BB2E386E38E9BB2002B64
:102E0000F1D13DE735F8023BC360E38E013B9BB255
:102E1000E386E38E9BB2002B3FF432AF83689B07BF
:102E20007FF576AFEEE735F8023BC360E38E013BFA
:102E30009BB2E386BDE735F8023BC360E38E013BFE
:102E40009BB2E386B1E722685368616823F0E00330
:102E5000B1F5827F536010D0A36AB3F5005F08D14B
:102E600013684DF6FF710B401360136843F4005371
:102E70001360012384F851304AE7A368B3F5004F8B
:102E800002D0B3F5806FE7D1136823F040031360DD
:102E9000E2E7A368B3F5004F03D0B3F5806F7FF48A
:102EA00068AF036823F04003036062E72DE9F04157
:102EB0000E4690F85010012982B079D004461F4682
:102EC000012380F850301546FEF730F894F8511081
:102ED0006368C9B20129804611D0B3F5827F09D059
:102EE00002200122002384F8512084F8503002B0DF
:102EF000BDE8F081A268002AF2D10429F0D1002EA9
:102F00005AD0002D58D0002F56D094F85120012AC5
:102F100004BF052284F85120002122686165E787FB
:102F2000E7861068A563C4E910114106A7872663E8
:102F3000A78603D4116841F040011160E168B1F542
:102F4000006F60D0002B00F0BE80E38E9BB2012B9F
:102F500000F0B980089B013340F0BD802268012158
:102F6000E38E9BB21BB9E38F9BB2002B36D071B1BD
:102F7000E38E9BB25BB193689F0708D533781373D8
:102F8000E38E2268013B9BB20136E3860021E38F8A
:102F90009BB2002BE4D09368D807E1D5D3682B709F
:102FA000E38F2268013B9BB20135E3870121D7E71C
:102FB000022002B0BDE8F081012092E79168880705
:102FC0005CD4089A002A00F0F280FDF7AFFF089B5E
:102FD000A0EB0800834240F2E980226808990131A1
:102FE0001346EBD193689D07FCD593681906FCD472
:102FF000A068002840F0D8800190D36801939368BE
:103000000193019B6DE7002B00F09680E38E9BB24D
:10301000012B00F09180089B013340F09580012145
:10302000E38E9BB21BB9E38F9BB2002BD6D069B164
:10303000E38E9BB253B193689F0707D536F8023BE6
:10304000D360E38E013B9BB2E3860021E38F9BB20A
:10305000002BE5D09368D807E2D5D36825F8023B6A
:10306000E38F013B9BB2E3870121D9E7FDF75EFFC8
:10307000089B2268A0EB0800834205D993681B06D1
:10308000B6D5089B002BF1D15368616823F0E003AB
:10309000B1F5827F536000F0AF80A36AB3F5005FA3
:1030A00008D113684DF6FF710B401360136843F4A9
:1030B00000531360012084F85100636D20221343F4
:1030C000636562650DE716F8013B1373E38E013B00
:1030D0009BB2E3863EE70127E38E9BB223B9E38FE1
:1030E0009BB2002B3FF479AF77B1E38E9BB25BB11B
:1030F00023689A68910707D532781A73E38E013BEB
:103100009BB20136E3860027E38F9BB25BB1236855
:103110009A68D20707D5DB682B70E38F013B9BB21F
:103120000135E3870127FDF701FF089BA0EB0800AD
:103130008342D1D80320D4E636F8023BD360E38E35
:10314000013B9BB2E38666E70127E38E9BB223B97E
:10315000E38F9BB2002B3FF440AF77B1E38E9BB27D
:103160005BB123689A68910707D536F8022BDA60BD
:10317000E38E013B9BB2E3860027E38F9BB25BB1FA
:1031800023689A68D20707D5DB6825F8023BE38FEE
:10319000013B9BB2E3870127FDF7C8FE089BA0EB2C
:1031A00008008342D1D8C5E700209AE623685A6810
:1031B000616822F0E002B1F5827F5A6010D0A26A05
:1031C000B2F5005F08D11A684DF6FF710A401A6027
:1031D0001A6842F400521A60012384F85130A9E7BA
:1031E000A268B2F5004F02D0B2F5806FE7D11A683D
:1031F00022F040021A60E2E7A368B3F5004F03D063
:10320000B3F5806F7FF449AF136823F04003136078
:1032100043E700BF38B390F8493070B5154604460F
:103220000E4603F0FF02CBB104F10801206800F064
:1032300021FE3146A268206800F048FE2946236B33
:10324000D4E9010200F062FEA168226852F8213040
:1032500043F0010342F82130002070BD80F848207F
:1032600013F00EFEE0E70120704700BF002858D0A1
:1032700090F8393070B503F0FF020446B3B3236809
:10328000354DE0686168022284F83920AB421A6843
:1032900049D0B3F1804F52D0A5F57C45AB422AD03E
:1032A00005F58065AB4226D005F58065AB4222D09E
:1032B00005F57845AB421ED005F57055AB4213D0ED
:1032C00005F58065AB420FD005F58065AB420BD0AC
:1032D000A5F59835AB4207D005F58065AB4203D024
:1032E00005F58065AB4232D125692DE080F83820A4
:1032F00013F04CFDC3E7A568266922F070022A434B
:10330000164D22F440723243AB421A60D862996281
:1033100001D162691A6301225A61002084F83920C0
:1033200070BD01207047A668256922F07002324303
:1033300022F440722A431A60D8629962E9E7A668CB
:10334000256922F07002324322F440722A431A6047
:10335000D8629962DFE700BF00000140000401402D
:103360000368DA6842F00102DA601A6842F001028A
:103370001A600020704700BF704700BF002858D077
:1033800090F8393070B503F0FF020446B3B32368F8
:10339000354DE0686168022284F83920AB421A6832
:1033A00049D0B3F1804F52D0A5F57C45AB422AD02D
:1033B00005F58065AB4226D005F58065AB4222D08D
:1033C00005F57845AB421ED005F57055AB4213D0DC
:1033D00005F58065AB420FD005F58065AB420BD09B
:1033E000A5F59835AB4207D005F58065AB4203D013
:1033F00005F58065AB4232D125692DE080F8382093
:10340000FFF7BAFFC3E7A568266922F070022A43D6
:10341000164D22F440723243AB421A60D862996270
:1034200001D162691A6301225A61002084F83920AF
:1034300070BD01207047A668256922F070023243F2
:1034400022F440722A431A60D8629962E9E7A668BA
:10345000256922F07002324322F440722A431A6036
:10346000D8629962DFE700BF00000140000401401C
:1034700010B403680C290CD8DFE801F0330B0B0BF8
:103480002E0B0B0B290B0B0B0700DA6842F0100216
:10349000DA60186A154C012202FA01F120EA0100F3
:1034A00018621A6AA34241EA020119620AD0104A5C
:1034B000934207D01A685DF8044B42F001020020E5
:1034C0001A6070475A6C42F400425A64F2E7DA68B4
:1034D00042F00802DA60DCE7DA6842F00402DA60FF
:1034E000D7E7DA6842F00202DA60D2E70000014072
:1034F0000004014090F83830012B00F0D280F0B584
:103500000223012480F8384080F839300C2A36D85C
:10351000DFE802F0073535356C3535359A35353508
:103520003D000368D1F808E01D6A0F68774E25F06A
:1035300001051D621A6AD3F804C09C6922F00202D8
:1035400024F07304B34242EA0E0244EA070400F096
:10355000AA806F4DAB4200F0A6804D68C3F804C04E
:103560009C615D631A629C690D6944F008049C616A
:10357000996921F0040199619A692A439A610023AB
:10358000012280F8392080F838301846F0BD0368F1
:10359000D1F808C01D6A0F685C4E25F480551D6285
:1035A0001A6A5D68DC6922F4005224F4E644B342EE
:1035B00042EA0C3244EA072400F0928006F5806665
:1035C000B34200F08D804E685D60DC611E641A625B
:1035D000DC690D6944F40064DC61D96921F480611F
:1035E000D961DA6942EA0522DA61C8E70368D1F8ED
:1035F00008E01D6A0F68454E25F010051D621A6A25
:10360000D3F804C09C6922F0200224F4E644B342BB
:1036100042EA0E1244EA072453D03D4DAB4250D04B
:103620004D68C3F804C09C619D631A629C690D6972
:1036300044F400649C61996921F4806199619A69FC
:1036400042EA05229A619AE70368D1F808E01D6A08
:103650000F682E4E25F480751D621A6AD3F804C0D7
:10366000DC6922F4007224F07304B34242EA0E22B1
:1036700044EA07043AD0264DAB4237D04D68C3F830
:1036800004C0DC61DD631A62DC690D6944F0080482
:10369000DC61D96921F00401D961DA692A43DA6170
:1036A0006DE702207047D1E90556CF6822F0080285
:1036B0002CF4407C3A43354322F0040245EA0C0CDA
:1036C0004BE7D1E90556CF6822F080022CF4406C1C
:1036D00042EA0712354322F040024CEA850C9FE78C
:1036E0004E6925F4804545EA86156CE7D1E9055613
:1036F000CF6822F400622CF4405C42EA0722354392
:1037000022F480624CEA051CB8E700BF00000140CB
:103710000004014090F83830012B67D00222036882
:10372000F0B480F839209A680C6822F47F4222F0C5
:1037300077020125402C80F838509A6000F0938081
:1037400018D9702C7FD02BD9B4F5805F76D0B4F522
:10375000005F1CD1D1E90152CC6899682A4342EA42
:10376000042221F47F410A439A609A6842F480421D
:103770009A600CE0102C42D02FD9202C38D0302C5D
:1037800005D19A6822F0700242F037029A60002355
:10379000012280F8392080F83830F0BC1846704794
:1037A000502C33D0602CF2D11C6A4D68CE6824F0C6
:1037B00010041C6299691A6A21F4704122F0A00277
:1037C00042EA051241EA063199611A629A6822F0CA
:1037D000700242F067029A60D9E7002CD7D19A684C
:1037E00022F0700242F007029A60D0E70220704790
:1037F0009A6822F0700242F027029A60C7E79A683E
:1038000022F0700242F017029A60C0E71D6A1E6A39
:103810004C68CF6826F001061E629A6925F00A01FD
:1038200022F0F00242EA071221439A6119629A6873
:1038300022F0700242F057029A60A8E79A6822F0DC
:1038400007029A60A3E7D1E90152CC6899682A433C
:1038500042EA042221F47F410A439A609A6842F0C6
:1038600077029A6093E71D6A1E6A4C68CF6826F05B
:1038700001061E629A6925F00A0122F0F00242EA6E
:10388000071221439A6119629A6822F0700242F08D
:1038900047029A607BE700BF704700BF704700BFD8
:1038A000704700BF704700BF03681A69910710B5E1
:1038B000044602D5DA6892075FD41A69500702D528
:1038C000DA68510746D41A69120702D5DA68100778
:1038D0002ED41A69D20602D5DA68D00618D41A692D
:1038E000D10702D5DA68D2075DD41A69100602D56D
:1038F000DA6811065FD41A69520602D5DA685006F2
:1039000061D41A69910602D5DA68920643D410BDD3
:103910006FF010021A61DB69082213F4407F2276EF
:10392000204664D0FFF7BAFF002223682276D6E74C
:103930006FF008021A61DB6904229907227620469B
:1039400052D1FFF7A9FF2046FFF7AAFF0022236804
:103950002276BEE76FF004021A619B69022213F41B
:10396000407F227620463CD1FFF796FF2046FFF7A6
:1039700097FF002223682276A5E76FF002021A6102
:103980009B6901229B07027625D0FFF787FF002263
:103990002368227691E76FF0200220461A61BDE885
:1039A000104000F051B86FF001021A61204609F092
:1039B00021FF236899E76FF080021A61204600F02A
:1039C00045F8236897E76FF040021A612046FFF739
:1039D00069FF236895E7FFF75FFF2046FFF760FF69
:1039E000D5E7FFF75BFFC4E7FFF758FFAEE7FFF748
:1039F00053FF2046FFF754FF96E700BF90F838309A
:103A0000012B1ED002460220136870B482F83900E0
:103A10005C6824F07004D1E900565C605868284363
:103A20005860986820F0800098609968002401250B
:103A300031439960204682F8395082F8384070BC92
:103A400070470220704700BF704700BF704700BF3B
:103A5000002800F004812DE9F84390F8393004463D
:103A600003F0FF02002B00F0F58023682669242272
:103A700084F83920D86820F40050D4E90225D860B1
:103A80001969E06921F4405129431961D9686569D0
:103A9000324321F416412A4321F00C0102430A4328
:103AA000DA605A69A16922F440720A43B0F5004F06
:103AB0005A61AA4A71D0934200F0D38002F5806225
:103AC000934200F0CE80FEF717FDA54F636800EB30
:103AD000800000EB80009B00B0FBF3F3A7FB032307
:103AE0005B091D01FEF708FD666800EB800000EB36
:103AF0008000B600B0FBF6F6FEF7FEFC636800EB54
:103B0000800000EB80009B00B0FBF3F3A7FB0323D6
:103B10005B094FF0640909FB13631B013233A7FBF8
:103B200003235B0903F0F006FEF7E6FC626800EB96
:103B3000800000EB80009300B0FBF3F8FEF7DCFCA4
:103B4000D4E9002100EB80008B0000EB8000B0FB8B
:103B5000F3F3A7FB03135B0909FB13831B01323348
:103B6000A7FB0313C3F3431333432B44936013693D
:103B700023F490431361536923F02A035361D368FC
:103B80000025202143F40053D3602846E56384F8E0
:103B9000391084F83A10BDE8F883934200F09F8012
:103BA00002F58062934200F09A80FEF7A5FC6C4F0C
:103BB000636800EB800000EB80005B00B0FBF3F378
:103BC000A7FB03235B091E01FEF796FC656800EB6B
:103BD000800000EB80006D00B0FBF5F5FEF78CFC7B
:103BE000636800EB800000EB80005B00B0FBF3F348
:103BF000A7FB03235B094FF0640909FB1353DB00A8
:103C00003233A7FB03231B0903F4F875FEF774FC9A
:103C1000626800EB800000EB80005300B0FBF3F81B
:103C2000FEF76AFCD4E9002100EB80004B0000EBBA
:103C30008000B0FBF3F3A7FB03135B0909FB1383BD
:103C4000DB003233A7FB0313C3F3421333442B448B
:103C500093608CE780F8382013F0DAF805E701204C
:103C60007047FEF759FC3E4F636800EB800000EBA5
:103C700080009B00B0FBF3F3A7FB03235B091D014E
:103C8000FEF74AFC666800EB800000EB8000B6009F
:103C9000B0FBF6F6FEF740FC636800EB800000EB3B
:103CA00080009B00B0FBF3F3A7FB03234FF06409F4
:103CB0005B0909FB13631B013233A7FB03235B0979
:103CC00003F0F006FEF728FC626800EB800093002A
:103CD00000EB8000B0FBF3F8FEF71EFC30E7FEF7C8
:103CE0001BFC1F4F636800EB800000EB80005B0053
:103CF000B0FBF3F3A7FB03235B091E01FEF70CFCEB
:103D0000656800EB800000EB80006D00B0FBF5F50E
:103D1000FEF702FC636800EB800000EB80005B00B4
:103D2000B0FBF3F3A7FB03234FF064095B0909FB26
:103D30001353DB003233A7FB03231B0903F4F8758D
:103D4000FEF7EAFB626800EB8000530000EB8000A6
:103D5000B0FBF3F8FEF7E0FB64E700BF00100140A2
:103D60001F85EB51F0B50E4690F83910202983B02D
:103D70002DD1002E2ED0019262B31F4690F838301C
:103D8000012B044623D00023C3630121212380F8A3
:103D9000381080F83930FDF7C9F8019AA284E2841E
:103DA00022680546E38C9BB2002B39D0E08CA168D9
:103DB000013880B2B1F5805FE08419D0781C3BD126
:103DC00010680106FCD5337853600136EAE702201B
:103DD00003B0F0BD012003B0F0BD13681B060CD486
:103DE000002F33D0FDF7A2F8401B874222682DD365
:103DF000781CF2D110680106FCD533882169C3F321
:103E0000080353600029E0D10236CBE713685B0654
:103E10000BD4DFB1FDF78AF8401B8742226815D327
:103E2000781CF3D113685906FCD52023002084F8B0
:103E3000393084F83800CBE713681B06C3D42FB1A0
:103E4000FDF774F8401B87422268B7D2D36823F489
:103E5000D073D3605369202123F001030025032090
:103E6000536184F8391084F8385084F83A1003B05C
:103E7000F0BD00BFD1E90132F0B4D1E903651343CD
:103E800033434C69CF6B2B43D1E90665234333435E
:103E9000D1E908642B433343D1E90A6523430C6815
:103EA00033432B430E6B50F8245007493B433343B5
:103EB00029400B43082A08BF43F0400340F8243050
:103EC0000020F0BC704700BF8000F0FF70B400EB32
:103ED00082028C690B68D1E90106234343EA00138F
:103EE000D1E903504C69516843EA062343EA05438C
:103EF000013843EA0053023C43EA046301F04041C5
:103F00000B430020536070BC704700BFB3F5804F77
:103F100005D06FF0704340F822300020704770B435
:103F20000B688D694C682B43D1E9026543EA0413A1
:103F3000064950F8224043EA062343EA054321405C
:103F40000B4340F8223070BC002070470000F0CFD7
:103F50002DE9F04F0C6894FAA4F24E68B2FA82F29E
:103F600034FA02F306F1FF3E79D04FF0010C03273B
:103F70004FF00F0803E0013234FA02F36FD00CFA6D
:103F800002F32340F7D0D0F8009093FAA3FABAFADC
:103F90008AFA93FAA3F5B5FA85F54FEA4A0A6D0055
:103FA00007FA0AFA06FA05F529EA0A0949EA0505AF
:103FB000BEF1010F056016D8856893FAA3F9B9FA26
:103FC00089F993FAA3FA4FEA490907FA09F925EAA8
:103FD0000909BAFA8AFA8D684FEA4A0A05FA0AF517
:103FE00049EA05058560C56893FAA3F9B9FA89F924
:103FF00093FAA3FA4FEA490907FA09F925EA0909E8
:10400000BAFA8AFA0D694FEA4A0A05FA0AF549EA44
:104010000505022EC560AED193FAA3FABAFA8AFA60
:10402000BAF1070F4FEA1325D1F8149025DC056A81
:1040300093FAA3FABAFA8AFA93FAA3F3B3FA83F3D8
:104040004FEA8A0A9B0008FA0AFA09FA03F325EAFA
:104050000A052B430132036234FA02F38FD1BEF119
:10406000010F07D8CA68436802FB04F223EA04047C
:10407000144344600120BDE8F08FD0F824A095FAE5
:10408000A5FBBBFA8BFB95FAA5F3B3FA83F34FEAD2
:104090008B0B9B0008FA0BFB09FA03F32AEA0B0AC5
:1040A0004AEA0303436266E770B4314D03688C68E3
:1040B0000A88A8424FD0B0F1804F29D0A5F57C45A1
:1040C000A84237D005F58065A84233D005F5806554
:1040D000A8422FD005F57845A8422BD005F570559C
:1040E000A84213D005F58065A8420FD005F580657C
:1040F000A8420BD0A5F59835A84207D005F58065F4
:10410000A84203D005F58065A84209D1C96804E03A
:104110004D68C96823F070032B4323F440730B43AD
:104120000360C4628262436943F00103436170BC6F
:10413000012070474D68CE6823F070032B430D4D6E
:1041400023F440733343A8420360C4628262EAD11D
:104150000B7C0363E7E74E68CD6823F070033343BD
:1041600023F440732B430360C4628262F0E700BF14
:1041700000000140000401401029F0B4034679D04A
:1041800050D9B1F5807F29D0B1F5805F6FD1006A39
:1041900014696C4D20F48050D2E900671862196AE6
:1041A000586821F4005141EA0431DC6921F480515E
:1041B00024F4E644AB4241EA073144EA062400F025
:1041C000928005F58065AB4200F08D80D268586022
:1041D000DC6101201A641962F0BC7047046A10693E
:1041E000584D24F48074D2E900671C62196A5C6837
:1041F00021F4007141EA0021D86921F4807120F096
:104200007300AB4241EA072146EA000656D04E4809
:10421000834253D0D2685C600120DE61DA63F0BC77
:1042200019627047012922D1046A1069454D24F0B2
:104230000104D2E900671C62196A5C6821F002017E
:104240000143986921F0010120F07300AB4241EA7B
:10425000070146EA000661D03B4883425ED0D2683F
:104260005C6001209E615A63F0BC196270470020B7
:10427000F0BC7047046A1069324D24F01004D2E992
:1042800000671C62196A5C6821F0200141EA001194
:10429000986921F0100120F4E640AB4241EA071191
:1042A00040EA062625D02848834222D0D2685C60A6
:1042B00001209E619A63F0BC19627047D2E905073C
:1042C00021F4006124F4805441EA802144EA071477
:1042D0009068D56921F4806124F4005441EA80217A
:1042E00044EA451496E7956920F4804040EA851039
:1042F0006CE7D2E9050721F0800124F4806441EAEB
:10430000801144EA87049068D56921F0400124F4C3
:10431000006441EA801144EAC504C7E7D2E9050711
:1043200021F0080124F4807441EA80013C43906844
:10433000D56921F0040124F4007441EA800144EAC3
:1043400045048CE7000001400004014030B4D1E98D
:1043500001450B7B0A682B4323F48063234323F43A
:1043600000631343CA8923F48053D1E90441134302
:1043700023F40053234323F440430B43436430BCF2
:104380000120704784B030B4089D03AC012D84E84F
:104390000E0031D1836B0F9A23F480338363C3689B
:1043A00023F4840323F04003C360C368012A23F489
:1043B0004013C3603AD0204B01E0013B0DD00269AD
:1043C000002AFADA02691C4B42F00102026101E0A4
:1043D000013B02D00269D107FAD4069B012B07D119
:1043E000836843F006038360836843F0200383609F
:1043F00030BC002004B07047C2680F4B42F040024E
:10440000C26001E0013B0DD00269002AFADA0269BC
:10441000094B42F00102026101E0013B02D0026956
:10442000D207FAD44FF480338363D6E7C36843F4EA
:104430008013C360BFE700BF400D030002460020A9
:10444000936843F001039360704700BF0246002069
:10445000936823F001039360704700BF08B5C368F9
:10446000012923F0C043C36009D019B9C36843F0E0
:104470008043C3603220FCF75FFD002008BDC368A5
:1044800043F00053C3603220FCF756FD002008BD06
:10449000890141F020010161054A01E0013A05D09E
:1044A000036913F02003F9D11846704703207047C1
:1044B000400D030010230361054A01E0013A05D0D5
:1044C000036913F01003F9D11846704703207047B1
:1044D000400D030010B49DF804406CB903339B08F1
:1044E0000AD000F5805000EB023201EB830351F853
:1044F000040B10608B42FAD100205DF8044B70472A
:10450000033292080DD010B401EB820200F5805402
:104510000846236840F8043B8242FAD15DF8044B18
:1045200070470846704700BF426980691040704775
:10453000406900F00100704784B030B504460020A7
:10454000C4F8000EA06B83B020F48020A06307ADF8
:10455000A06B85E80E0020F40020A063A36BDDE9CA
:10456000081243F40013A363032AD4F8003457D08D
:1045700023F00403C4F800344FF484632361304B08
:1045800001E0013B02D022699006FAD41023236196
:104590002B4B01E0013B02D02269D206FAD461B173
:1045A0000022154604F5A0634FF0FF3001328A4225
:1045B0009860DD6003F12003F8D1D4F84034019312
:1045C000019B23F02E030193019BDB0404D4019B88
:1045D00043F48053C4F84034C820019BFCF7ACFC82
:1045E00000224FF0FF33B4F1A04FA26163611FD0EE
:1045F0004FF40071134A144B6162A262C4F8003197
:104600000A9B1BB9A36943F01003A361A2690F4B76
:1046100000201343A36103B0BDE8304004B07047ED
:10462000B4F1A04FA4D043F00403C4F80034A3E7CE
:104630008021074A074B6162A262C4F80031DFE7BC
:10464000400D0300000200010003E000080020A369
:1046500080006000E0004000D0F8003423F0030345
:10466000C0F80034D0F8002401F0030313430129FB
:10467000C0F8003400F5806006D0022904BF41F282
:1046800070734360002070474BF680334360002016
:10469000704700BF10B5044682B0D4F8403401938F
:1046A000019B23F02E030193019B43F48073C4F814
:1046B00040340A20FCF740FC019B002023F4807367
:1046C000C4F8403402B010BD82B0D0F84034019339
:1046D000019B23F02E030193019B13F4805F019B48
:1046E00001D101290AD0DB0405D521B9019B23F4AE
:1046F0008053C0F84034002002B0704743F4805328
:10470000C0F84034019B002002B0704782B0D0F85E
:10471000403401930198C0F3414002B0704700BF9C
:1047200000F58060806880B2704700BF2DE9F041DD
:1047300000F5A06505EB41159DF81C609DF818700B
:10474000BDF820404FF0FF3CC5F808C04FFA82FC8E
:10475000032E13D8DFE806F00251024340F29D4ECB
:10476000BCF1000FC5F80CE040DBB0F1A04F05D064
:10477000D5F80CE04EF0600EC5F80CE09B05D202B7
:1047800003F0FE5302F4F042D0F818841A430123D8
:1047900003FA01F141EA0801C4F30A03C0F818144E
:1047A00013430CF4004CB404022F826943EA0C0357
:1047B00004F4402414BF00214FF4003123430B4381
:1047C00042F00072032E826100F5806E2B6003D1EF
:1047D0002B6843F000532B600020BDE8F08140F2CD
:1047E0009D6EBCF1000FC5F80CE0C7DAD5F80CE0FF
:1047F0004EF4807EC5F80CE0C0E740F2252EBCF1F7
:10480000000FC5F80CE0B9DAD5F80CE04EF4C07E24
:10481000C5F80CE0B2E700BF80B58AB002AFF8601F
:10482000B9601346FB7100237B7700237B83002351
:10483000FB834FF480733B8300237B61FB68B3F100
:10484000A04F2AD0BB681B79002B26D1FB79002B07
:104850000BD1BB685B79012B07D1BB685B7819462C
:10486000F86800F005FA002309E1FB79012B14D167
:10487000BB685B785A01FB68134403F5A063DB68EF
:10488000BA6852785101FA680A4402F5A06223F02E
:104890006003D360BB6800225A71BB681B69002BA0
:1048A00019D0BB681B69BA6812891344013BBA6806
:1048B0001289B3FBF2F3FB83FA8B3B8B9A420CD940
:1048C0003B8BFB83FB8BBA68128902FB03F31A460E
:1048D000BB681A6101E00123FB83BB68DB78002B16
:1048E00007D0FB8BBA68128902FB03F31A46BB6838
:1048F0001A61BB681B69C3F31202FB8BDB04194608
:10490000614B0B401A43BB689B7A5B0703F0C043C3
:10491000B96849784801F968014401F5A061134379
:104920000B61FB79002B0AD0BB68D968BB685B7848
:104930005A01FB68134403F5A0630A465A61FB68F9
:1049400003F580639B6803F00103002B0CBF012378
:104950000023DBB27B77BB685B785A01FB681344AA
:1049600003F5A0631B68BA6852785101FA680A44DB
:1049700002F5A06223F000531360BB685B785A0114
:10498000FB68134403F5A0631B687A7F5207104647
:10499000BA6852785101FA680A4402F5A0620343EA
:1049A0001360BB685B785A01FB68134403F5A0638E
:1049B0001B687B617B6923F080437B617B6943F0EB
:1049C00000437B61BB685B785A01FB68134403F5C5
:1049D000A0631A467B691360FB79002B4ED1BB683C
:1049E000DB78002B4AD1BB681B69002B46D0BB6823
:1049F000DB79032B30D801A252F823F00D4A0008CE
:104A0000314A00080D4A0008314A0008BB681B699A
:104A100003339B087B837A8BFB68DB6A9BB29A42E9
:104A20001CD9FB689B6943F02002FB689A6115E082
:104A3000BB681B6903339B087B837A8BFB6803F598
:104A400080631B699BB29A420AD9FB689B6943F059
:104A50008062FB689A6103E000BF02E000BF00E0F3
:104A600000BFBB68D968BB685A78BB681B6998B23D
:104A7000002300930346F868FFF72CFD0023184637
:104A80002037BD4680BD00BF0000F81F80B483B052
:104A900000AF78607B6803F580635B699BB2184662
:104AA0000C37BD465DF8047B704700BF80B485B00D
:104AB00000AF78600B46FB700023FB60FB785A0167
:104AC0007B68134403F5A0631B689B0C03F003038E
:104AD000002B0BD0FB785A017B68134403F5A063CD
:104AE0001B689B0C03F00303022B5CD1FB785A017B
:104AF0007B68134403F5A0631B68FA7851017A6858
:104B00000A4402F5A06243F0804313607B68DB6ACD
:104B100003F47F03002B33D1FB785A017B681344E5
:104B200003F5A0631B68FA7851017A680A4402F51C
:104B3000A06223F000431360FB785A017B681344A2
:104B400003F5A0631B68FA7851017A680A4402F5FC
:104B5000A06243F000431360FB680133FB60FB6815
:104B6000B3F57A7F1DD8FB785A017B68134403F5AF
:104B7000A0631B6803F00043B3F1004FECD06FE07B
:104B8000FB785A017B68134403F5A0631B68FA782D
:104B900051017A680A4402F5A06243F000431360B1
:104BA0005EE000BF5CE0FB785A017B68134403F5CC
:104BB000A0631B68FA7851017A680A4402F5A06282
:104BC00043F0804313607B6803F580631B699BB2ED
:104BD000002B33D1FB785A017B68134403F5A063A3
:104BE0001B68FA7851017A680A4402F5A06223F042
:104BF00000431360FB785A017B68134403F5A063FC
:104C00001B68FA7851017A680A4402F5A06243F001
:104C100000431360FB680133FB60FB68B3F57A7FE8
:104C20001DD8FB785A017B68134403F5A0631B6809
:104C300003F00043B3F1004FECD011E0FB785A01D0
:104C40007B68134403F5A0631B68FA7851017A6806
:104C50000A4402F5A06243F00043136000E000BF85
:104C6000002318461437BD465DF8047B704700BF2B
:104C700080B485B000AF78600B46FB700123FB73F6
:104C80000023BB60FB7BDB041A46154B1340FA780C
:104C900051017A680A4402F5A06243F000431361AF
:104CA000FB785A017B68134403F5A0631B68BB6063
:104CB000BB6823F08043BB60BB6843F00043BB602C
:104CC000FB785A017B68134403F5A0631A46BB685E
:104CD0001360002318461437BD465DF8047B704707
:104CE0000000F81F80B586B000AF786000233B61FC
:104CF0007868FFF7ABFB10217868FFF7C9FB78688D
:104D0000FFF7D8FB0023FB751FE0FB7D5A017B6892
:104D1000134403F5A0631B68FB60FB6843F080430A
:104D2000FB60FB6823F00043FB60FB6823F4004357
:104D3000FB60FB7D5A017B68134403F5A0631A46B0
:104D4000FB681360FB7D0133FB75FB7D0F2BDCD90A
:104D50000023FB7534E0FB7D5A017B68134403F5A7
:104D6000A0631B68FB60FB6843F08043FB60FB684B
:104D700043F00043FB60FB6823F40043FB60FB7DD2
:104D80005A017B68134403F5A0631A46FB6813605D
:104D90003B6901333B613B69B3F57A7F0CD8FB7DFE
:104DA0005A017B68134403F5A0631B6803F00043BA
:104DB000B3F1004FECD000E000BFFB7D0133FB7589
:104DC000FB7D0F2BC7D97B6803F580631A464FF034
:104DD000FF3353617B684FF0FF325A617868FFF709
:104DE0002DFB002318461837BD4680BDD0F874331C
:104DF000DB699A78062A08D1D0F8B823186A998B0B
:104E0000121A8A4224BF04229A700020704700BF01
:104E100038B5D0F87433DC696178054649B9217832
:104E200091B9D5F87433D86908B120F0BDFA0020E3
:104E300038BD01F0D5FE6178284601F02BFF2178BE
:104E4000002363700029ECD0284601F0C9FE2178C8
:104E5000284601F01FFF00232370E2E72DE9F04709
:104E6000D0F8741384B0FF2301220979044600F0BE
:104E7000D3FBFF2800F098800146204600F088FB15
:104E80003420D4F8746320F087FAF06194F81F336B
:104E90001A2202FB0343072293F843338270012B4B
:104EA000054600F09180022B57D14C4820F0D6FFE8
:104EB0000A2020F0EBFF4A4B2B6394F81F331A2291
:104EC00002FB03424FF01A0892F84803A876B2F8A2
:104ED0004A0392F84C232883092A98BF0A22AA83FE
:104EE00008FB0342002192F84073A9706971002FFA
:104EF0003DD0022F28BF022700264FF0030908FBF0
:104F000003F306F1010A03EBCA032344204693F896
:104F100040331A0619462ED4EB7001F067FE844622
:104F2000288B94F81D1394F81C33EA780091CDE98E
:104F300001906146204685F800C001F041FE002244
:104F40002978204613F00EFB5FFA8AFA574506F1DE
:104F500001060CD994F81F33D1E7224820F07EFFD8
:104F60000A2020F093FF022004B0BDE8F087002063
:104F700004B0BDE8F0872B7101F038FE8446288B21
:104F800094F81D1394F81C332A790091CDE901900F
:104F90006146204685F801C001F012FE00226978C2
:104FA000204613F0DFFACFE70F4820F057FFD4F880
:104FB00074330E48196820F051FF0A2020F066FF74
:104FC000022004B0BDE8F087094820F047FF0A201E
:104FD00020F05CFF074B2B636FE700BFD0B20308E4
:104FE00005540008E4B2030884B2030890B2030831
:104FF000B8B20308F1520008D0F8743370B5DD6917
:105000006B7982B00446052B23D8DFE803F0372202
:1050100026371603364B0022C0E90432114601F050
:10502000ADFC0646A8B901236B712046D4F8C43301
:1050300002219847304602B070BD002240F621237D
:10504000C0E90432114601F099FC002849D0032838
:1050500047D00126304602B070BDEB8D00934FF46F
:10506000085200F58E73012101F0FEF80028F0D1FE
:105070000126042330466B7102B070BD09230093F2
:105080004FF4045200F58E73012101F0EDF8002871
:10509000DFD194F81C3185F8263094F81D3185F85D
:1050A000273094F81F2194F81E3103EB02232B853F
:1050B00094F8203185F82A3094F8213185F82B3086
:1050C00094F8223185F82C3094F8241194F8233187
:1050D0000126022203EB01233046EB856A7102B000
:1050E00070BD0126052330466B7102B070BD00BF54
:1050F000210B010070B49DF80C4042EA0126A2B2D7
:10510000194640F621140023468204828382C2821B
:1051100070BC01F033BC00BF00230281C0E9001362
:1051200083727047F0B40446807A10BB0123A372E7
:10513000FAB1E388A5889D4220D0561EB6B201364A
:1051400084460E440D4602E0A7889F4216D0276889
:10515000FB5C05F8013BE388278901339BB29F4242
:10516000E38002D1A4F806C00023681AAE4280B2E0
:10517000EAD10023A3721046F0BC70470023A3724B
:10518000F0BC7047704700BFF8B5D0F87433DC69E5
:10519000A3780546062B44D8DFE803F04547434390
:1051A00084930400617813F0D3F9012840F09080D3
:1051B00094F82430002B34D194F812C0BCF1000FC5
:1051C00027D1278BA07462691FB3A389E689591C74
:1051D0008E421ED0013FBFB201371744208A14E02F
:1051E000A16812F8010BC854A389208A01339BB22D
:1051F0008342A38104BF0023A4F80CC0BA4203F188
:10520000010106D0E689B14203D08842E8D1002EE0
:10521000E6D10023A3740123284684F82430FFF745
:10522000B1FF0020F8BD236B9847228B2F4B61699B
:105230002B61D2B20023EA82AB82284601F09EFBAA
:105240000028EED1A77C3FBB268B62690123A374A3
:1052500016B3A389E589591CA9421DD0013EB6B2F7
:1052600001361644208A13E0A16812F8010BC854D5
:10527000A389208A01339BB28342A38104BF002308
:10528000A781B24203F1010106D0E589A94203D00A
:105290008842E9D1002DE7D10023A3740523A37030
:1052A0000020F8BD6378227E616901F079FCD5F8B1
:1052B000B83323620023062284F82430A270002031
:1052C000F8BDD0F8B833DB07ABD50423A370A8E74B
:1052D0006178284613F03CF90528A2D12846A17E22
:1052E00001F06CFA0028F0D09BE700BFA10100019B
:1052F00038B5D0F874330C49DA690C4C158B54610D
:105300000023022DC1F80130C1F80530C4E9003393
:1053100084BF0223138300F58E7102F1080050222E
:10532000FFF7FAFE002038BD88040020800400202A
:10533000D0F8743370B5DC69228B3AB1244904F19A
:105340000800FFF7EFFE238B834201D0002070BDE1
:105350002048214D002100F5807600F071F80021F1
:105360006870A6F1E00000F06BF80021A870A6F1CB
:10537000C00000F065F80021E870A6F1A00000F080
:105380005FF800212871A6F1800000F059F8002193
:105390006871A6F1600000F053F80021A871A6F131
:1053A000400000F04DF80021E871A6F1200000F067
:1053B00047F805F8080F0024E1B2304600F040F845
:1053C0000134062C05F8010FF6D1034870BD00BF6B
:1053D00080040020C089020888040020084B427A1B
:1053E00081781A44012992F82021134404D081794C
:1053F00011B993F88C02704793F80802704700BF08
:10540000C089020838B5D0F874330B4CDB690B49FE
:105410001D8B59610022042D226022710A6084BF15
:1054200004221A8300F58E71282203F10800FFF789
:1054300073FE002038BD00BF98040020A0040020A7
:10544000F0B4437A0568077A4BBB4668F1084A1CFA
:1054500016F0070F4FF0000318BF11461A4603E07D
:105460002A78DC00A24001338B42F9D1012101FAF4
:1054700006F4FA40631EC5681A40954211D80369C4
:1054800093420ED3837AC069B3B1013E01FA06F6A6
:10549000164211D06442224300FB02F002E08B422C
:1054A00002D80020F0BC7047466806FB017105EB8E
:1054B000D10501F00707C9E700FB02F0F0BC704717
:1054C00070B558B30025044680F8BC23C0F8745367
:1054D000C0F878533C220E4600F55F7029461FF055
:1054E000B0FF29464FF4007204F58E701FF0A9FF3B
:1054F000012340214FF4807225706570C4F8B853C1
:105500006576A3702376A171A4F81C230EB1C4F8AC
:10551000C463204612F078FF002070BD054820F0DB
:105520009DFC054820F09AFC0A2020F0AFFC0220E8
:1055300070BD00BF00B3030808B3030808B5A9B1E4
:10554000D0F8783333B90122C0F87013C0F878234B
:10555000184608BD0B4820F081FC0B4820F07EFC6B
:105560000A2020F093FC0223184608BD054820F0CD
:1055700075FC064820F072FC0A2020F087FC02230C
:10558000E6E700BF00B303081CB3030838B3030801
:1055900038B590F836338B4226D90546184885F839
:1055A0001F130C4620F05AFC0A2020F06FFC1A232F
:1055B00003FB0454134894F8411320F04FFC0A20D5
:1055C00020F064FC94F842130F4820F047FC0A20B6
:1055D00020F05CFC94F843130C4820F03FFC0A20B8
:1055E00020F054FC002038BD094820F037FC094861
:1055F00020F034FC0A2020F049FC022038BD00BF16
:1056000050B3030870B3030880B3030890B30308D2
:1056100000B30308A0B3030810B490F841438C42D0
:1056200009D0FF2907D090F85B438C420FD0FF20B0
:105630005DF8044B704790F84243944215D0FF2A1E
:1056400013D090F85B438C4201D0FF29EFD190F842
:105650005C13914201D0FF2AE9D190F85D239A4270
:1056600001D0FF2BE3D1012006E090F843439C4298
:1056700001D0FF2BE5D10020C0B2D9E710B5044618
:1056800012F0EEFE2046012112F066FF002010BD50
:1056900070B586B002238DF81730037804460A2BC4
:1056A0002FD8DFE813F059002E00A500DD002E00F2
:1056B00066007D008D0096003100040190F83013E3
:1056C000002900F0C88100F58E752A46FF2300F0FE
:1056D000BDFCB0B92946CE4820F0C0FB0A2020F01E
:1056E000D5FBCC4820F0BAFB0A2020F0CFFB94F881
:1056F00031330022012B84F81F2300F0A3810723FC
:105700002370002006B070BDD0F87833002B00F075
:105710006F810022D0F87033C0F87423197990F8A3
:105720004123914240F06B81C0F874339B689847E5
:10573000D4F87433002840F051811968B648062324
:10574000237020F08BFB0A2020F0A0FBD4F8C43398
:10575000204603219847D4E790F81E33002BD0D081
:1057600001230370C82012F00FFF204612F0A2FEA2
:10577000C7E74378072BC4D801A252F823F000BF33
:1057800045590008AB5900086F5900083359000803
:105790001F590008EF580008BF580008BD56000800
:1057A000D0F87433002B00F06F811B6998478DF897
:1057B00017009DF81730002BA3D10A232370A0E710
:1057C000D0F8C433002B9CD00121984708232370C4
:1057D00097E790F8371300F011FF002891D10923C3
:1057E00023708E4820F03AFB0A2020F04FFB88E718
:1057F0008B4820F033FB0A2020F048FB642012F095
:10580000C3FE204612F048FE0523237084F81D03D2
:105810000021204601F0EAF980216071204601F064
:10582000E5F90146A07994F81C3394F81D23217101
:105830000025CDE9015000928022204601F0C0F9F8
:1058400094F81D03A67994F81C33617900900195B2
:105850002A460296204601F0B3F9002006B070BD3A
:105860003C22002100F55F701FF0EBFD4FF4007249
:10587000002104F58E701FF0E4FDD4F87423002598
:10588000012340204FF4807125706570C4F8B8532F
:105890006576A3702376A071A4F81C13002A3FF448
:1058A00030AFD36820469847C4F8745329E7D0F83E
:1058B0007433002B3FF425AF5B69984721E790F8DC
:1058C0002F13002900F0CE8000F58E752A46FF23A5
:1058D00000F0BCFB00287FF414AF2946514820F0AB
:1058E000BDFA0A2020F0D2FA0723637009E790F886
:1058F0002E13002900F0BF8000F58E752A46FF2385
:1059000000F0A4FB00287FF4FCAE2946464820F0B6
:10591000A5FA0A2020F0BAFA06236370F1E6B0F87F
:10592000341300F02DFA00287FF4EBAE05236370EA
:10593000E7E6092100F024FA00287FF4E2AE042310
:105940006370DEE6082100F003F9054600287FF4C5
:10595000D8AE94F8272394F81D0394F81C332179CA
:1059600001950126A27102926670009064E7012100
:1059700000F064FD054600287FF4C3AE022012F05B
:1059800003FE012184F81C13284820F067FA0A203E
:1059900020F07CFA0326A07994F81C33217994F83E
:1059A0001D2301956670029045E7122100F0D0F8A2
:1059B00000287FF4A6AEB4F82A131D4820F04EFA52
:1059C0000A2020F063FAB4F828131A4820F046FAA7
:1059D0000A2020F05BFA0223637092E619681648E9
:1059E0000C23237020F03AFA0A2020F04FFA88E6C0
:1059F000124820F033FA0A2020F048FA81E60C23FE
:105A000003700F4820F02AFA0A2020F03FFA78E6C7
:105A10004CB4030874B40308ECB40308B0B403082E
:105A2000C0B303082CB4030804B40308ECB30308A0
:105A3000D4B30308E0B3030800B50308CCB40308EB
:105A400020B50308164820F009FA0A2020F01EFAB3
:105A50000823237055E6134820F000FA0A2020F0AE
:105A600015FA3EE6104820F0F9F90A2020F00EFA67
:105A70000723637045E60D4820F0F0F90A2020F076
:105A800005FA062363703CE60C230370084820F0F7
:105A9000E5F9084820F0E2F90A2020F0F7F930E6AD
:105AA00088B4030860B403083CB4030818B40308BE
:105AB00000B3030848B50308C0F8B813704700BF27
:105AC000D0F8B8230132C0F8B82302780A2A00D0EF
:105AD0007047D0F87433002BFAD09B69184700BF89
